:10000000D1C00000EBC00000E9C00000E7C0000064
:10001000E5C00000E3C00000E1C00000DFC0000058
:10002000DDC00000DBC00000D9C000000DC500002D
:10003000D5C00000D3C00000D1C00000CFC0000078
:10004000CDC00000CBC00000C9C00000C7C0000088
:10005000C5C00000C3C00000C1C00000BFC0000098
:10006000BDC00000BBC00000B9C00000B7C00000A8
:10007000B5C000001201100100000008C016DC0528
:1000800000000102030109021200010100C032094F
:100090000400000000000000040309041A037700B4
:1000A000770077002E006F00620064006500760024
:1000B0002E00610074000000160344004700380061
:1000C0005300410051002D00490032004300000060
:1000D00014035400460033004C004A002D00310048
:1000E0002E003000000056464F204D656D6F72792E
:1000F0002053746F72656420202000253032750013
:1001000020202D2D002532752E00535752005025EA
:1001100032752E2530337557005041204269617386
:100120002043616C6962726174650054656D70652D
:100130007261747572652053687574646F776E00B0
:100140002020426961733A0025752E2530327541B1
:10015000002532752E253175560025337546005819
:100160002533752E2530366C754D487A2046257816
:100170002D2578000000001500000000001010156B
:10018000101000000018181D18180000001C1C1D7D
:100190001C1C0000001E1E1E1E1E0000001F1F1F34
:1001A0001F1F000011241FBECFEFD2E0DEBFCDBF66
:1001B00011E0A0E0B1E0E2ECF5E202C005900D92A2
:1001C000AA37B107D9F712E0AAE7B1E001C01D9242
:1001D000A538B107E1F79CD10C94DF1211CF26D4DA
:1001E00037D0CFD4FDCF923029F0933041F0913009
:1001F00029F51FC022E130E0E6E8F0E023C08130BD
:1002000059F0813028F0823059F08330B9F40CC0B5
:10021000E8E9F0E024910BC0ECE9F0E0249107C09C
:10022000E8EBF0E0249103C0E0EDF0E0249130E051
:1002300009C022E130E0E4E7F0E004C020E030E073
:10024000E0E0F0E0DA011196FC93EE93C901089525
:100250000E94300B40917A0141FD59C18091840088
:100260009091850020918001309181018217930740
:10027000A8F480917E018F5F80937E018B3070F0B7
:1002800040FD0AC0809102010E941C0C8091040173
:100290000E944E0C0E94070D10927E0180918400F6
:1002A00090918500909381018093800180918400DA
:1002B000909185006AE979E10E945F128091840142
:1002C000909185016817790709F4D0C07093850172
:1002D0006093840185B198E0892785B980917A017E
:1002E00080FF18C0809102010E941C0C20917002B6
:1002F000332727FD30958091090190E082179307FD
:1003000064F480917A01886080937A0180E80E9489
:10031000000C03C0877F80937A0140917B0120917C
:10032000700247FF15C0332727FD309580916D017E
:1003300090E0821793071CF14F7740937B018091E7
:1003400008010E94080C60916E016095682313C03B
:10035000332727FD309580916C0190E08217930739
:1003600074F4406840937B01809108010E94080C5E
:1003700060916E01682B809108010E94E20B9091C0
:100380007B0194FF13C091FF03C010927D0105C053
:1003900080917D018F5F80937D0180917D0185300B
:1003A00028F09F7E90937B0110927D0180917F01C8
:1003B0008A30D8F06091450170E0660F771F660FB4
:1003C000771F635E7F4F8DE191E044E050E00E9433
:1003D000C81285E491E065E470E041E050E00E94DD
:1003E000C81280917B01866026C04F9B2AC088235B
:1003F00029F1809145018F5F809345018A3018F083
:1004000081E080934501E0914501F0E0EE0FFF1F90
:10041000EE0FFF1FE050FF4F858D968DA78DB0A189
:1004200080931D0190931E01A0931F01B0932001A2
:1004300080917B01826080937B010AC010927F01D2
:1004400007C090917B0192FD03C08F5F80937F0175
:1004500080917B0182FF02C00E94EC0E0E94DB0EA5
:1004600080917A0180FF02C00E94070D8091840074
:100470009091850060E972E00E945F128091820194
:10048000909183016817790709F43FC07093830145
:100490006093820180917A0180FF04C08091040101
:1004A0000E944E0C0E94EB0F80917A0180FF02C0E7
:1004B0000E94680F80917B0181FF27C0E091450178
:1004C000F0E0EE0FFF1FEE0FFF1FE050FF4F809197
:1004D0001D0190911E01A0911F01B0912001858FF7
:1004E000968FA78FB0A360911D0170911E0180911E
:1004F0001F019091200179D780917B018D7F80939E
:100500007B0110927F010E949E0CA8950895FFCF59
:1005100084B7877F84BF88E10FB6F894809360002A
:10052000109260000FBE90E080E80FB6F8948093C0
:100530006100909361000FBE1092800084E0809370
:1005400081008CE084B983E085B980917B0180686B
:1005500080937B0180E090E00E94C01290910001A6
:10056000891789F08AE40E94080C8F3F19F08AE409
:100570008093020180E091E060E070E04FE650E09F
:100580000E94C81208C080E091E060E070E04FE691
:1005900050E00E94B012E0914501F0E0EE0FFF1F25
:1005A000EE0FFF1FE050FF4F858D968DA78DB0A1F8
:1005B00080931D0190931E01A0931F01B093200111
:1005C00080917B01816080937B01C7D78CE070D3E1
:1005D00080E496E08AD30E94FA102CE088E190E053
:1005E0000FB6F894A895809360000FBE209360002A
:1005F0000E942B0BF4DD80E090E008951F93DF93C1
:10060000CF9300D000D0CDB7DEB7E6E7F2E080911F
:10061000F100819382E0EE37F807C9F78091760206
:1006200020917702253009F496C0263048F4213015
:1006300009F440C0213070F0233009F060C13AC0A5
:10064000283009F40DC1293009F42DC1263009F0F4
:1006500056C19CC0803821F0823809F050C108C0D2
:100660008091710290917202992369F082600BC0AF
:1006700080917A028093E9009091EB0081E095FFF0
:1006800080E01092E9009091E800977F9093E80055
:100690008093F1001092F1008091E800982F9E7FE6
:1006A0009093E8008F778093E8008091E80082FFC4
:1006B000FCCFEFC0882319F0823009F020C190E010
:1006C0008F719070009721F082309105C1F50BC0B9
:1006D00080917802813009F013C1233009F080E065
:1006E000809372022CC080917802882341F520917A
:1006F0007A02277009F404C12093E9008091EB008D
:1007000080FF1DC0809177028130A1F48091EB00C1
:1007100080618093EB0081E090E002C0880F991F18
:100720002A95E2F78093EA001092EA008091EB00AC
:10073000886003C08091EB0080628093EB00109290
:10074000E9008091E800877F8093E8008091E800CD
:10075000982F9E7FA2C0882309F0D1C08091E80025
:10076000877F8093E8008091E800982F9E7F909388
:10077000E8008F778093E8008091E80080FFFCCF4D
:100780008091780280688093E300BAC080588230FC
:1007900008F0B5C0809178029091790260917A0258
:1007A000AE014F5F5F4F1FDD009709F4A9C0209194
:1007B000E800277F2093E80020917C0230917D02A1
:1007C0008217930720F490937D0280937C0220E0AF
:1007D0002DC08091E80080FD10C0A1C0E981FA81A0
:1007E0009F012F5F3F4F3A832983E491E093F1000B
:1007F000019790937D0280937C0280917C0290917E
:100800007D02009721F02091F200283038F380918A
:10081000F20021E0883009F020E08091E800982F74
:100820009E7F9093E8008F778093E80080917C0210
:1008300090917D02009769F6222369F08091E8008B
:1008400080FFFCCF8091E800982F9E7F9093E80076
:100850008F778093E8008091E80082FFFCCF19C079
:10086000803809F04CC08091E800877F8093E800D1
:10087000809173028093F1008091E800982F9E7F11
:100880009093E8008F778093E8008091E80082FFE2
:10089000FCCF8091E800982F9B7F9093E8008F77A2
:1008A0008093E8002DC0882351F51091730280E0F9
:1008B00091E060E0AE014D5F5F4F95DC009701F184
:1008C000EB81FC817196E49180917802E817C0F089
:1008D0009091E800977F9093E80080937302909145
:1008E000E800292F2E7F2093E8009F779093E8005F
:1008F000112319F4882309F0A0D09FD001C09DD006
:100900008091E80083FF10C08091EB0080628093AB
:10091000EB008091E800877F8093E80005C080911C
:10092000E80082FF56CFB5CF0F900F900F900F9039
:10093000CF91DF911F9108958093E900EBEEF0E0F5
:10094000808181608083EDEEF0E010826093EC00A6
:1009500040838091EE00881F8827881F0895109299
:10096000F40080E08093E9001092F0001092E8001B
:100970009091ED009D7F9093ED009091EB009E7F14
:100980009093EB008F5F853069F708958091750231
:10099000882309F052D08091E00081608093E000CC
:1009A0004DD04FD0109275021092740210927302C3
:1009B0008091D8008F778093D80019BC08953ED0DD
:1009C00040D0109275021092730210927E02109223
:1009D00072021092710284E089BD89B5826089BD7E
:1009E00009B400FEFDCF8091D800982F9F77909397
:1009F000D80080688093D800809163008E7F8093B8
:100A000063008091D8008F7D8093D8008091E000B2
:100A10008E7F8093E0008091E20081608093E2000D
:100A20008091E20088608093E2000895AFDFC7DF25
:100A300081E0809374027894089508951092E20002
:100A400008951092E10008951F920F920FB60F9231
:100A500011242F933F934F935F936F937F938F93C3
:100A60009F93AF93BF93EF93FF938091E10080FF3B
:100A700024C08091E20080FF20C08091E1008E7F41
:100A80008093E1008091E2008E7F8093E20080916C
:100A9000E20080618093E2008091D80080628093C0
:100AA000D80019BC81E080937E02C7DF8091750277
:100AB000882319F010927502C0DF8091E10084FF55
:100AC0002BC08091E20084FF27C084E089BD89B5F6
:100AD000826089BD09B400FEFDCF8091D8008F7D72
:100AE0008093D8008091E1008F7E8093E100809117
:100AF000E2008F7E8093E2008091E200816080932B
:100B0000E20080917502882321F481E080937502D0
:100B100094DF10927E0291DF8091E10083FF20C07C
:100B20008091E20083FF1CC08091E100877F809369
:100B3000E100109273028091E1008E7F8093E100CA
:100B40008091E2008E7F8093E2008091E2008061DC
:100B50008093E20004DF80E060E042E0EDDE6DDFE4
:100B6000FF91EF91BF91AF919F918F917F916F9185
:100B70005F914F913F912F910F900FBE0F901F905B
:100B800018950F931F9380917502882379F0109127
:100B9000E90017701092E9008091E80083FF04C01B
:100BA0000FB7F8942BDD0FBF1093E9001F910F9141
:100BB0000895009711F400C008950197F1F7089582
:100BC000459A00C0459808951F93662311F0429AF4
:100BD00001C042984498249A259A269A279A2F98D9
:100BE0002E982D982C9887FD2F9A182F86FD2E9AD7
:100BF00015FD2D9A14FD2C9AE3DF2F982E982D9831
:100C00002C9813FD2F9A12FD2E9A11FD2D9A10FD8E
:100C10002C9AD6DF2C9A2D9A2E9A2F9A1F910895EE
:100C20004298449A2498259826982798459A00C077
:100C30001C9902C080E001C080E11D9980621E996C
:100C400080641F998068459800C0459A00C01C992F
:100C500081601D9982601E9984601F998860459803
:100C60000895DEDF87FDFDCF88E090E0A2DFD8CFDA
:100C70001F93182FF6DF812F60E0A6DF1F910895E4
:100C80001F93182FEEDF812F61E09EDF1F910895E3
:100C9000662311F4805809C0613011F4805405C0F6
:100CA000623011F48C5601C08C52E2CF81E0E0CF6B
:100CB0003A9A3C9A3D9A249A259A269A279A80E055
:100CC0009AEF77DF2D9A2C9A7BDF80E09EE471DF2C
:100CD00077DF80E091E06DDF73DF80E091E069DF36
:100CE0002C986EDF80E091E064CF909307028093B0
:100CF000060208951F93182F8A3031F4E0910602FE
:100D0000F09107028DE00995E0910602F09107024B
:100D1000812F09951F910895A82FE62FF72F20E026
:100D200030E00AC0449101C0408150E0405350403F
:100D30009C01240F351F3196AA2311F0849101C024
:100D4000808180538A3040F4C9016AE070E00E94DB
:100D50003412AA2339F7E8CFC90108952F923F92A0
:100D60004F925F926F927F928F929F92AF92BF92BB
:100D7000CF92DF92EF92FF920F931F93DF93CF9367
:100D800000D0CDB7DEB77F886AE1E62EF12CEC0EFD
:100D9000FD1E988D898D092F182F50E3652E670150
:100DA0005EC2D8018C91853209F056C20F5F1F4F89
:100DB000772019F0F801849102C0D8018C918D320E
:100DC00031F40F5F1F4F41E0242E312C02C022244A
:100DD0003324772029F0F8018491803331F40CC05A
:100DE000D8018C91803331F407C08E3229F030E283
:100DF000432E08C08E3259F40F5F1F4F772051F0F9
:100E000020E3422EF80184918A32B9F409C090E2BD
:100E1000492E02C080E3482ED8018C918A3279F4A1
:100E2000F6010190F081E02DFA83E9830F5F1F4FF7
:100E300022E030E0C20ED31E1BC0772011F4D8018F
:100E40008C9180538A3080F4872DB80165DF9A83B6
:100E50008983F801772011F0849101C0808180534B
:100E60008A3028F43196F6CF1A82198201C08F0198
:100E7000772019F0F801849102C0D8018C918E324C
:100E800059F50F5F1F4F772029F0F80184918A32BE
:100E900089F404C0D8018C918A3251F4F601808023
:100EA00091800F5F1F4F22E030E0C20ED31E1AC0A8
:100EB000D8018C9180538A3078F4872DB8012CDFCB
:100EC0004C01F801772011F0849101C0808180539A
:100ED0008A3038F43196F6CFBEEF8B2EBFE79B2ECB
:100EE00001C08F01772019F0F801849102C0D80168
:100EF0008C91833229F40F5F1F4FA1E0B0E002C054
:100F0000A0E0B0E0772019F0F801849102C0F80168
:100F100080818C3629F40F5F1F4F81E090E002C082
:100F200080E090E0772019F0F801249102C0F801E8
:100F3000208130E02F36310509F490C0203731058B
:100F400064F42336310509F437C12436310591F0B4
:100F50002532310509F081C17EC12537310509F4FB
:100F60007DC02837310509F479C02337310509F0F0
:100F700074C12CC1009749F0D6016D917D918D917E
:100F80009C911397E4E0F0E00AC0D6016D917C914A
:100F90001197882777FD8095982FE2E0F0E0CE0E3C
:100FA000DF1E97FF0BC090958095709561957F4FE0
:100FB0008F4F9F4FA1E08A2E912C02C08824992444
:100FC000F6E8AF2EF1E0BF2E2AE030E040E050E03E
:100FD0000E949512605DF50161935F01B901CA013C
:100FE00016161706180619067CF37F018114910462
:100FF00021F0DF01EDE2ED937D01A980BA8026E8C2
:1010000031E0A20EB31EAE18BF082114310481F4E2
:1010100002C0842D6FDE0894A108B10895012F5FEE
:101020003F4F12161306ACF303C0D7018C9162DE5A
:101030000894E108F108B6E8EB16B1E0FB06A8F762
:101040002114310409F409C105C080E253DE08947B
:10105000A108B1081A141B04C4F3FFC0009741F0A3
:10106000F601608171818281938144E050E007C084
:10107000F6016081718180E090E042E050E0C40EB2
:10108000D51E25373105B9F4E6E8AE2EE1E0BE2ED7
:101090002AE030E040E050E00E947312605DD5012C
:1010A0006D935D017D01B901CA016115710581056D
:1010B000910571F750C02F363105D1F426E831E0A3
:1010C000462F4770405DF90141939F0153E096958B
:1010D0008795779567955A95D1F7611571058105C3
:1010E000910571F77F011097B1F161927F0133C0D3
:1010F0002837310561F527E831E0F9013197AB0177
:101100004F7050704A30510514F4405D01C0495A87
:101110004083790144E096958795779567954A9540
:10112000D1F72F5F3F4F319661157105810591050C
:1011300031F7109781F0F70128E72193D701119635
:101140006C9211977F010894E11CF11C04C026E801
:10115000E22E21E0F22EA980BA80E6E8F1E0AE0EA0
:10116000BF1EAE18BF082114310481F402C0842DC3
:10117000C1DD0894A108B10895012F5F3F4F1216F9
:101180001306ACF303C0D7018C91B4DD0894E108D9
:10119000F108B6E8EB16B1E0FB06A8F7211431041C
:1011A00009F45BC005C080E2A5DD0894A108B10880
:1011B0001A141B04C4F351C092E0E92EF12CEC0C7C
:1011C000FD1CF601808196DD670147C0F60122E033
:1011D00030E0C20ED31EE080F180E114F10421F46E
:1011E00080E7E82E81E0F82EF70101900020E9F772
:1011F0003197EE19FF09A980BA80AE1ABF0A2114EF
:10120000310461F402C0842D75DD0894A108B10891
:1012100095012F5F3F4F12161306ACF32701EE2402
:10122000FF2404C067DD0894E11CF11CD2018D91FC
:101230002D01882319F0E814F904A4F321143104D2
:1012400061F005C080E256DD0894A108B1081A14C7
:101250001B04C4F302C085E24DDD0F5F1F4F7720F2
:1012600031F0F8018491882309F09DCD05C0D801A3
:101270008C91882309F095CD80E090E00F900F903D
:10128000CF91DF911F910F91FF90EF90DF90CF9062
:10129000BF90AF909F908F907F906F905F904F9096
:1012A0003F902F900895FF920F931F93042D0150AC
:1012B000202F26952695352D34503295330F307ECC
:1012C0002F71232B20937F02A1E20024AA1B10F48C
:1012D000A20D031C0794A795979587957795679519
:1012E000AA95A9F7162FF72FE82FB92F292F3A2FF4
:1012F00082E0263C380708F03EC02091170130916B
:1013000018014091190150911A01BD0180E090E04F
:10131000DC010F2EF8E4FF2EF02D8894111FFF1F23
:10132000EE1F771F661F881F991FAA1FBB1F821BF6
:10133000930BA40BB50B30F4820F931FA41FB51FA2
:10134000889401C00894FA9449F7111DF11DE11D1C
:10135000711D611D10938402F0938302E093820259
:10136000709381020295000F000F007C062B009302
:10137000800281E001C080E01F910F91FF900895ED
:101380001F93182F2AD180910101880F3CD18091A1
:101390004002882321F4812F36D181E001C080E012
:1013A0001F910895CF93DF9387E0EADF882341F010
:1013B000CFE7D2E0899127D182E0C538D807D1F7AD
:1013C00013D1DF91CF910895DF93CF930F92CDB7D3
:1013D000DEB76983D5DF6981882311F0862F13D1A9
:1013E00003D10F90CF91DF910895AF92BF92CF922A
:1013F000DF92EF92FF920F931F93CF93DF937B01C6
:101400008C0160931D0170931E0180931F019093C6
:10141000200180917A0180FD03C0C801B701FAD490
:1014200060911B0170911C0161157105E1F18091C2
:10143000080290910902A0910A02B0910B02AD013D
:1014400057016801A81AB90ACA0ADB0AD601C50100
:10145000D7FE07C0B095A095909581959F4FAF4F4F
:10146000BF4F5C016D0124E0AA0CBB1CCC1CDD1C31
:101470002A95D1F7A81AB90ACA0ADB0A80E090E0D7
:101480009A0140E050E00E9446126A157B058C05E7
:101490009D0548F080917B0180FD05C0C801B70122
:1014A00002DF80DF4FC0B801769567957695679526
:1014B00080E997E90E945F125B012BE030E0CC24C9
:1014C000DD24C0E8D5E0422F2830C1F02A30B1F049
:1014D000C501B901F4D7FB013196E138F10570F48B
:1014E000E130F10511F0E0FD3196CF01B901BCD733
:1014F0008C179D0718F4CE2EEC01D42E21503040CD
:101500002330310501F7DD20E9F01E012601C80175
:10151000B701C9DE8823B1F0E0920802F092090217
:1015200000930A0210930B0289E860E14DDF80917D
:101530004002882339F436DF89E860E045DF87E838
:1015400060E442DFDF91CF911F910F91FF90EF9008
:10155000DF90CF90BF90AF90089580917B01379B33
:1015600019C080FF1AC0109208021092090210924E
:101570000A0210920B0260911D0170911E01809170
:101580001F019091200131DF80917B018E7F80933C
:101590007B010895816080937B01089586E08A95A0
:1015A000F1F700C00895CF93DF93C2E3D0E0F6DFF8
:1015B00021978FEFCF3FD80721F481E0809340023D
:1015C00002C0379BF4CFDF91CF9108953E983F98AA
:1015D000EADF86B13F9A80740895109240023F98E6
:1015E0003E9ADCDF3F9ADACF3E9A3F98D7DF3E98AB
:1015F000D5CF3E9A3F98D7DF3F9AD0CF3E983F98BD
:10160000D2DF3F9ACBCFFF920F931F93F82E08E0C3
:1016100010E8812F8F2111F4ECDF01C0EFDF0150C2
:1016200011F01695F6CF10914002D0DF812B8093F8
:1016300040021F910F91FF9008950F931F9308E0B0
:1016400010E0110FC3DF811111600150D1F7812F1C
:101650001F910F91089556985E9A55985D9A089536
:10166000CF92DF92EF92FF920F931F93CF93DF936E
:10167000C0916901D0916A0191E04E9B90E081E0B8
:101680004D9B80E03091110220911002931739F0A8
:101690008217A1F490931102981749F406C082179B
:1016A00069F080931002981711F01FEF01C011E04C
:1016B00080917B018A6080937B0101C010E0809162
:1016C0007B0183FF76C0877F80937B01E09084005D
:1016D000F0908500C0900E02D0900F02EC14FD0433
:1016E000B0F09E0140E050E060E077E781E090E0FC
:1016F0001CD7C7018C199D092817390730F0809134
:101700000D028F5F80930D0202C010920D02F092C5
:101710000F02E0920E0220910D0230E0CE0165E052
:1017200070E0CDD66217730728F480917B01806149
:1017300080937B0190910C0280917B01911731F095
:1017400085FF02C08F7D05C0806203C085FF03C096
:101750008F7C80937B0110930C0280917B0184FF2E
:1017600004C0812F64E677D6182FE12EFF24E7FC12
:10177000F0940F2D1F2D84EC90E2BE01A0D69B01AA
:1017800040E050E0C801B70181D620911D013091A1
:101790001E0140911F0150912001620F731F841F91
:1017A000951F60931D0170931E0180931F019093FC
:1017B0002001DF91CF911F910F91FF90EF90DF906B
:1017C000CF900895DF93CF9300D0CDB7DEB76A8373
:1017D000898303DF8981880F16DF6A81862F13DFF3
:1017E00003DF0F900F90CF91DF910895682F6095E0
:1017F00080916F01682360936F0180910501E2CFB2
:1018000060916F01682B60936F0180910501DACFC1
:10181000DF93CF930F92CDB7DEB78983DEDE898168
:10182000880F8160F0DE09DF8983E8DEDDDE8981F3
:101830000F90CF91DF910895DF93CF930F92CDB7A3
:10184000DEB78983CADE8981880F8160DCDEF5DE40
:1018500080937002CEDEF1DE80936F02CFDEC4DEB5
:101860000F90CF91DF9108951F93DF93CF930F9245
:10187000CDB7DEB7162F8983B0DE8981880FC3DE2E
:10188000812F82958F70BFDE812F8295807FBBDE96
:10189000ABDE0F90CF91DF911F910895EF92FF92F1
:1018A0001F93DF93CF930F92CDB7DEB7898395DE79
:1018B0008981880F8160A7DEEE24FF24BEDE182F09
:1018C00098DEBBDE93E0E916F10419F0898391DE1E
:1018D0008981E12FE295EF70E43098F4F0E0EE0FAB
:1018E000FF1FEB59FD4F1295107F982F92959F7017
:1018F000190F118390E024E0880F991F2A95E1F7D2
:1019000080830894E11CF11CE4E0EE16F104B1F6CA
:1019100075DE6ADE0F90CF91DF911F91FF90EF90FF
:101920000895CF93DF93EC0101C0AAD9FE0121965F
:1019300084918823D1F7DF91CF9108950F931F935E
:10194000CF93DF9381E060E0A3D960911D01709196
:101950001E0180911F019091200184D420E034E287
:1019600044E759E4E5D420E030E040E054E3E0D43B
:101970004DD4062F172F282F392F80917A0180FD03
:1019800010C080916B01992787FD909568EE73E0F8
:101990006BD5AA2797FDA095BA2F080F191F2A1FEC
:1019A0003B1F8DB79EB70D970FB6F8949EBF0FBE25
:1019B0008DBFCDB7DEB7219681E0EDB7FEB781834D
:1019C0008FE591E09A838983C901B80120E432E46C
:1019D0004FE050E088D53C832B836D837E838F83DB
:1019E00098878091410289871A86809142028B876D
:1019F0001C86B4D98DB79EB70D960FB6F8949EBFCE
:101A00000FBE8DBFDF91CF911F910F910895CF929F
:101A1000DF92EF92FF920F931F93DF93CF9300D04B
:101A20000F92CDB7DEB780916801853118F084E15F
:101A30008093680180E061E02BD900D000D00F9244
:101A4000EDB7FEB7319601E0ADB7BEB711960C9376
:101A50008AE591E09283818380916F029091700278
:101A6000880F892F881F990B919569E070E0FCD44D
:101A70004AE0C42ED12CB60122D5605E7F4F74831C
:101A800063836CD960916B0270916C0280E090E08E
:101A90002CE930E040E050E0F9D420EF3FEF40E0A7
:101AA00050E021D579010F900F900F900F900F907B
:101AB00087E061E0EDD82DB73EB7275030400FB634
:101AC000F8943EBF0FBE2DBFEDB7FEB73196ADB750
:101AD000BEB711960C9381E591E092838183C70193
:101AE000B601EDD4748363839683858337D980915F
:101AF0007A0181742DB73EB7295F3F4F0FB6F89436
:101B00003EBF0FBE2DBF882389F180916502909161
:101B1000660266E071E0D3D47B018DE061E0B8D865
:101B20008DB79EB707970FB6F8949EBF0FBE8DBFB7
:101B3000EDB7FEB73196ADB7BEB711960C9388E4FA
:101B400091E092838183C70164E670E0B8D4748326
:101B500063839683858302D92DB73EB7295F3F4FB4
:101B60000FB6F8943EBF0FBE2DBF03C080E491E0D6
:101B7000D8DEDE011196E6E7F1E083E001900D92F8
:101B80008150E1F783E161E083D880917C01FE011F
:101B9000E80FF11D818174D880E063E079D88091ED
:101BA0007A0183FF03C08BE291E004C086FF04C08A
:101BB00089E191E0B6DED5C080FFD3C080E062E06D
:101BC00067D8809167029091680260D120913C02B1
:101BD000E22FF0E0EE0FFF1FEC5EFD4F918380835C
:101BE0002F5F20933C0280916801281710F010921B
:101BF0003C02E4E1F2E090E0880F991F8E0F9F1FF6
:101C000000E010E006C0219131910217130708F49B
:101C10008901E817F907B9F784E6E82EF12CC80125
:101C2000B7014DD49B018091660190E06AE070E0BD
:101C30001BD4BC01C9014CE098D28DB79EB7079761
:101C40000FB6F8949EBF0FBE8DBFEDB7FEB73196AD
:101C500081E0ADB7BEB711968C938EE091E0928390
:101C60008183C80168EE73E02AD47483638396830A
:101C7000858374D82DB73EB7295F3F4F0FB6F894D0
:101C80003EBF0FBE2DBF80E063E002D8209163020B
:101C900030916402C901B70112D48B017C0180919B
:101CA000670190E064E670E0DFD3BC012456304069
:101CB000982F492F572FCA012817390708F4C9014F
:101CC0004CE053D28AE091E02CDE00D000D00F929D
:101CD000EDB7FEB73196CC24C394ADB7BEB711961D
:101CE000CC9285E091E0928381831483038336D87C
:101CF00080917A010F900F900F900F900F9082FFBC
:101D000016C00436110520F080E091E00ADE08C01C
:101D1000C7016AE070E0D3D3862F805D0E94400641
:101D200081E40E9440068DE00E94380616C000D073
:101D300000D00F92EDB7FEB73196ADB7BEB7119692
:101D4000CC928BEF90E092838183F482E38206D879
:101D50000F900F900F900F900F9083E163E00E941F
:101D600048060F900F900F90CF91DF911F910F9128
:101D7000FF90EF90DF90CF9008950E945606DEDD31
:101D800046DE8CE00E94380680E060E00E94480653
:101D900080917A0180FF03C084E50C94400682E5BF
:101DA0000E944006E4E1F2E01192119282E0EC33ED
:101DB000F807D1F7089540917A012091790130E038
:101DC000842F90E0817090702817390721F04170BE
:101DD00040937901D2CF089580E063E00E944806E5
:101DE00086EE90E09EDD80911202909113020196A2
:101DF00090931302809312028431910554F08091E4
:101E00007B018B7F80937B01109213021092120250
:101E1000B4CF0895EF92FF921F93CF93DF93E82EF4
:101E2000E7017E01F92EE701E6E4F1E010E02191FF
:101E30003191C217D30718F01F5F1730C1F7809197
:101E40006F01887F80936F01812FDADC109341024C
:101E5000E6E5F1E010E081919191C817D90718F0FB
:101E60001F5F1730C1F761E070E0012E02C0660FFE
:101E7000771F0A94E2F780910601A4DC10934202D6
:101E8000DF91CF911F91FF90EF900895009739F067
:101E900024E0969587952A95E1F78E5A9F4FBC01CD
:101EA00080E090E0209110013091110140E050E07D
:101EB000EDD224E530E040E050E015D3B901CA018D
:101EC000E5D220E533EC40E050E00DD3C9010895A0
:101ED000EF92FF921F93CF93DF9310917A0113FD3E
:101EE0006FC010FF6DC0C0916702D091680282E0A0
:101EF000C030D80708F1E0906902F0906A02EC1651
:101F0000FD0608F5B70180E090E09E0140E050E05A
:101F1000620F731F841F951F24E630E040E050E0FD
:101F2000B5D29E012E193F0940E050E0DCD287E295
:101F30002630380740F402C024E630E030936402D3
:101F40002093630206C086E097E290936402809338
:101F50006302CE019BDF20910A0130910B0128170B
:101F60003907F0F480910E0190910F016AE070E062
:101F70007BD220916302309164028217930780F430
:101F800080913F02882321F481E080933F021DC0AD
:101F9000146010937A0180E433DC80910C010DC051
:101FA00080913E02882341F41B7F10937A0180E4E4
:101FB0001DDC10923F0209C0815080933E0205C093
:101FC0001B7F10937A0180E41BDCDF91CF911F917E
:101FD000FF90EF9008951F9310911201113029F096
:101FE00080917A01123029F50DC080917C018130F9
:101FF00029F0809103016091150136DC81E0809326
:102000007C0187C082FF08C08091030160911501A7
:102010002BDC10927C017DC080917C01823009F420
:1020200078C080910301609116011EDC10937C0141
:1020300070C083FD6EC0816480937A0180E8D6DB36
:102040009091660280911301981790F080917A0127
:1020500084FD0EC0806180937A0180913D0280935F
:10206000150185E191E065E170E041E050E090D23A
:102070009091660280911401981790F080917A01F6
:1020800085FD0EC0806280937A0180913D0280932D
:10209000160186E191E066E170E041E050E078D21F
:1020A00080913D028F3FB9F480917A0180628093E4
:1020B0007A01109215011092160185E191E065E117
:1020C00070E041E050E064D286E191E066E170E0CA
:1020D00041E050E05DD280917A0185FF12C08E7898
:1020E00080937A0180E88CDB10923D0282E080933D
:1020F000120182E191E062E170E041E050E048D2FB
:1021000008C060913D026F5F60933D0280910301C2
:10211000ABDB1F910895EF92FF921F93DF93CF9354
:102120000F92CDB7DEB7440F440F440F660F660F12
:10213000660F7C01E60EF11C10E0812F840F806495
:1021400049830E943806F70184910E9440061F5F70
:102150000894E11CF11C4981183079F70F90CF9158
:10216000DF911F91FF90EF900895CF92DF92EF9251
:10217000FF920F931F93DF93CF930F92CDB7DEB7EC
:10218000FC019B01CB01E217F30708F4CF0166E0E5
:1021900070E06AD1642F70E067D1B90190D16B0112
:1021A000CB0166E070E08BD1E82E00E010E0FF2468
:1021B00015C098012B5F3F4FC216D30628F4C016F6
:1021C000D10620F480E003C085E001C08E2D498354
:1021D0000E944006F3940A5F1F4F4981F41648F3AA
:1021E0000F90CF91DF911F910F91FF90EF90DF90B3
:1021F000CF9008951F9310E084E791E0612F412F65
:102200008ADF1F5F1630C1F71F91089570D088F0E4
:102210009F5790F0B92F9927B751A0F0D1F0660FD2
:10222000771F881F991F1AF0BA95C9F712C0B130ED
:1022300081F077D0B1E0089574C0672F782F882798
:10224000B85F39F0B93FCCF3869577956795B3952C
:10225000D9F73EF490958095709561957F4F8F4F9B
:102260009F4F0895E89409C097FB3EF490958095A0
:10227000709561957F4F8F4F9F4F9923A9F0F92F4C
:1022800096E9BB279395F695879577956795B795CA
:10229000F111F8CFFAF4BB0F11F460FF1BC06F5FB0
:1022A0007F4F8F4F9F4F16C0882311F096E911C0C2
:1022B000772321F09EE8872F762F05C0662371F0E3
:1022C00096E8862F70E060E02AF09A95660F771FF7
:1022D000881FDAF7880F9695879597F9089557FD27
:1022E0009058440F551F59F05F3F71F04795880F84
:1022F00097FB991F61F09F3F79F08795089512161B
:1023000013061406551FF2CF4695F1DF08C01616C6
:1023100017061806991FF1CF869571056105089477
:102320000895E894BB2766277727CB0197F908958E
:102330000AD080C071D028F076D018F0952309F02B
:1023400062C067C0EFCFCBDFA8F39923D9F3552341
:10235000C9F3950F50E0551FAA27EE27FF27BB278B
:1023600000240894679520F4E20FF31FB41F0A1E9F
:10237000220F331F441FAA1F6695A9F7779530F4E3
:10238000F30FB41F0A1E121E08F46395330F441F87
:10239000AA1F221F769599F7879520F4B40F0A1E7D
:1023A000121E631F440FAA1F221F331F8695A9F711
:1023B000862F712D602D11249F5750408AF0E1F037
:1023C00088234AF0EE0FFF1FBB1F661F771F881F71
:1023D00091505040A9F79E3F510570F014C0A2CF14
:1023E0005F3FECF3983EDCF3869577956795B7955C
:1023F000F795E7959F5FC1F7FE2B880F911D969586
:10240000879597F9089597F99F6780E870E060E0F5
:1024100008959FEF80EC089500240A94161617067D
:1024200018060906089500240A94121613061406C5
:1024300005060895092E0394000C11F4882352F028
:10244000BB0F40F4BF2B11F460FF04C06F5F7F4FE0
:102450008F4F9F4F0895002480FD060E660F11F0E8
:102460008695D1F7802D08955527002480FF02C05E
:10247000060E571F660F771F6115710521F096959F
:102480008795009799F7952F802D0895FF27EE27C0
:10249000BB27AA2760FF04C0A20FB31FE41FF51FCC
:1024A000220F331F441F551F969587957795679583
:1024B00089F70097760771F7CF01BD010895AA1B30
:1024C000BB1B51E107C0AA1FBB1FA617B70710F01F
:1024D000A61BB70B881F991F5A95A9F78095909551
:1024E000BC01CD010895A1E21A2EAA1BBB1BFD0160
:1024F0000DC0AA1FBB1FEE1FFF1FA217B307E407E3
:10250000F50720F0A21BB30BE40BF50B661F771F3A
:10251000881F991F1A9469F760957095809590951A
:102520009B01AC01BD01CF01089597FB092E052643
:102530000ED057FD04D0D7DF0AD0001C38F45095D8
:102540004095309521953F4F4F4F5F4F0895F6F7D7
:1025500090958095709561957F4F8F4F9F4F08950F
:10256000DC01CB01FC01F999FECF06C0F2BDE1BD53
:10257000F89A319600B40D9241505040B8F7089542
:10258000F999FECF92BD81BDF89A992780B508953B
:10259000DC01CB0102C02D9105D041505040D8F74D
:1025A0000895262FF999FECF1FBA92BD81BD20BD97
:1025B0000FB6F894FA9AF99A0FBE01960895F89416
:0225C000FFCF4B
:1025C20002554E0D283F393A38373100C8001E00F7
:1025D200E8030102230000C2F54872AC0D6866866A
:1025E20003C3F5E8005C8FC2015C8F8203285C0F95
:1025F20005608F020720850B09608F820AE07A74DA
:102602000C608F020E0300010003000400060008A4
:10261200000A000C010000010002000480054007CE
:102622001909800A010004040A0004002D2801FF90
:0A263200286E696C2900524C480123
:00000001FF
